[
    {
        "txid": "671c1a726031fd3d619a5d645b7b51456c2e544334cab71e75afdea5e5eac49f",
        "version": 2,
        "type": 0,
        "size": 223,
        "locktime": 117,
        "vin": [
            {
                "txid": "e434f0e30ae85e2e4d2c9b5b6fbfb1fb3329c051dc5643f6581e3ec8f93ee181",
                "vout": 1,
                "scriptSig": {
                    "asm": "304402205745654f72462b18877c48e9e505ce6a9985259df9205d98b26de69d0b29e136022011cbf6a63ac11f4b1b0ab5c9da21e5cd0109aa24e7ee3f4401bcae1f1b8d0ed6[ALL] 023300c75155c4c727eefe86a0a9d4411f39b2e8c20ff20ad33685251eea5ac792",
                    "hex": "47304402205745654f72462b18877c48e9e505ce6a9985259df9205d98b26de69d0b29e136022011cbf6a63ac11f4b1b0ab5c9da21e5cd0109aa24e7ee3f4401bcae1f1b8d0ed60121023300c75155c4c727eefe86a0a9d4411f39b2e8c20ff20ad33685251eea5ac792"
                },
                "sequence": 4294967294
            }
        ],
        "vout": [
            {
                "value": 10,
                "valueSat": 1000000000,
                "n": 0,
                "scriptPubKey": {
                    "asm": "OP_HASH160 95ea90ca69082fa2e69347d35a5405a39981d122 OP_EQUAL",
                    "hex": "a91495ea90ca69082fa2e69347d35a5405a39981d12287",
                    "reqSigs": 1,
                    "type": "scripthash",
                    "addresses": [
                        "8t69PYprEFGW2VgaeGkNUMsoCL9aDsNR7C"
                    ]
                }
            },
            {
                "value": 449.99998914,
                "valueSat": 44999998914,
                "n": 1,
                "scriptPubKey": {
                    "asm": "OP_DUP OP_HASH160 8782d64411e93f291f3530e96724800c5ecabef7 OP_EQUALVERIFY OP_CHECKSIG",
                    "hex": "76a9148782d64411e93f291f3530e96724800c5ecabef788ac",
                    "reqSigs": 1,
                    "type": "pubkeyhash",
                    "addresses": [
                        "yYfxop5y4whaxGkvx7RX2iR8dksaZ2F7Y9"
                    ]
                }
            }
        ],
        "hex": "020000000181e13ef9c83e1e58f64356dc51c02933fbb1bf6f5b9b2c4d2e5ee80ae3f034e4010000006a47304402205745654f72462b18877c48e9e505ce6a9985259df9205d98b26de69d0b29e136022011cbf6a63ac11f4b1b0ab5c9da21e5cd0109aa24e7ee3f4401bcae1f1b8d0ed60121023300c75155c4c727eefe86a0a9d4411f39b2e8c20ff20ad33685251eea5ac792feffffff0200ca9a3b0000000017a91495ea90ca69082fa2e69347d35a5405a39981d12287c27d357a0a0000001976a9148782d64411e93f291f3530e96724800c5ecabef788ac75000000",
        "blockhash": "65d8f9575af68faa10a8b70cb0ba488cc1df02783ca0716411f6d37197bcba1b",
        "height": 118,
        "confirmations": 2,
        "time": 1615081055,
        "blocktime": 1615081055,
        "instantlock": false,
        "instantlock_internal": false,
        "chainlock": false
    },
    {
        "txid": "ce99113fe5ac68597d531bdaabefffbecc7cac6e5818203985c5672f50f7a30a",
        "version": 3,
        "type": 0,
        "size": 281,
        "locktime": 0,
        "vin": [
            {
                "txid": "671c1a726031fd3d619a5d645b7b51456c2e544334cab71e75afdea5e5eac49f",
                "vout": 0,
                "scriptSig": {
                    "asm": "30440220231da559822085592fc9340ddb9f60eb038a1f39e5109e87e77831e7de1ac6b10220194a624036c9a10292cd4e4118f507de99d35ee9c2f9c1fdbe06e7564c349a6a[ALL] 323137383238 1 63a820ded787fd3ddc887828b1d6533e4a3a916df2c5ef25453aa1483944dae20144258821032ac01aa37cbc1cad7076738a9758c159d16314bc1128fd20aa581422a7195253ac6703a80040b2752103e3df3f61716b685cfa23a35dc204c500af677cb4a40b61af429fd812c5607d4cac68",
                    "hex": "4730440220231da559822085592fc9340ddb9f60eb038a1f39e5109e87e77831e7de1ac6b10220194a624036c9a10292cd4e4118f507de99d35ee9c2f9c1fdbe06e7564c349a6a0106323731383238514c7263a820ded787fd3ddc887828b1d6533e4a3a916df2c5ef25453aa1483944dae20144258821032ac01aa37cbc1cad7076738a9758c159d16314bc1128fd20aa581422a7195253ac6703a80040b2752103e3df3f61716b685cfa23a35dc204c500af677cb4a40b61af429fd812c5607d4cac68"
                },
                "sequence": 4294967295
            }
        ],
        "vout": [
            {
                "value": 9.99999,
                "valueSat": 999999000,
                "n": 0,
                "scriptPubKey": {
                    "asm": "OP_DUP OP_HASH160 b089b16968460c04e3bfaaace1fc60a17c8b4b20 OP_EQUALVERIFY OP_CHECKSIG",
                    "hex": "76a914b089b16968460c04e3bfaaace1fc60a17c8b4b2088ac",
                    "reqSigs": 1,
                    "type": "pubkeyhash",
                    "addresses": [
                        "ycQtj3UtVF21TkeVU3mnGhX8dqezHXxhUh"
                    ]
                }
            }
        ],
        "hex": "03000000019fc4eae5a5deaf751eb7ca3443542e6c45517b5b645d9a613dfd3160721a1c6700000000c44730440220231da559822085592fc9340ddb9f60eb038a1f39e5109e87e77831e7de1ac6b10220194a624036c9a10292cd4e4118f507de99d35ee9c2f9c1fdbe06e7564c349a6a0106323731383238514c7263a820ded787fd3ddc887828b1d6533e4a3a916df2c5ef25453aa1483944dae20144258821032ac01aa37cbc1cad7076738a9758c159d16314bc1128fd20aa581422a7195253ac6703a80040b2752103e3df3f61716b685cfa23a35dc204c500af677cb4a40b61af429fd812c5607d4cac68ffffffff0118c69a3b000000001976a914b089b16968460c04e3bfaaace1fc60a17c8b4b2088ac00000000",
        "blockhash": "14e20cddcb10d857b8dcfe7061aa9117c16bcff515b6bd8dcb6b147a2b0da0e3",
        "height": 119,
        "confirmations": 1,
        "time": 1615092137,
        "blocktime": 1615092137,
        "instantlock": false,
        "instantlock_internal": false,
        "chainlock": false
    }
]